{
  "_format": "hh-sol-artifact-1",
  "contractName": "BuyMeACoffee",
  "sourceName": "contracts/BuyMeACoffee.sol",
  "abi": [
    {
      "inputs": [],
      "stateMutability": "nonpayable",
      "type": "constructor"
    },
    {
      "anonymous": false,
      "inputs": [
        {
          "indexed": true,
          "internalType": "address",
          "name": "from",
          "type": "address"
        },
        {
          "indexed": false,
          "internalType": "uint256",
          "name": "timestamp",
          "type": "uint256"
        },
        {
          "indexed": false,
          "internalType": "string",
          "name": "name",
          "type": "string"
        },
        {
          "indexed": false,
          "internalType": "string",
          "name": "message",
          "type": "string"
        }
      ],
      "name": "newMemo",
      "type": "event"
    },
    {
      "inputs": [
        {
          "internalType": "string",
          "name": "_name",
          "type": "string"
        },
        {
          "internalType": "string",
          "name": "_message",
          "type": "string"
        }
      ],
      "name": "buyCoffee",
      "outputs": [],
      "stateMutability": "payable",
      "type": "function"
    },
    {
      "inputs": [],
      "name": "currentOwner",
      "outputs": [
        {
          "internalType": "address payable",
          "name": "",
          "type": "address"
        }
      ],
      "stateMutability": "view",
      "type": "function"
    },
    {
      "inputs": [],
      "name": "getCurrentOwner",
      "outputs": [
        {
          "internalType": "address",
          "name": "",
          "type": "address"
        }
      ],
      "stateMutability": "view",
      "type": "function"
    },
    {
      "inputs": [],
      "name": "getMemos",
      "outputs": [
        {
          "components": [
            {
              "internalType": "address",
              "name": "from",
              "type": "address"
            },
            {
              "internalType": "uint256",
              "name": "timestamp",
              "type": "uint256"
            },
            {
              "internalType": "string",
              "name": "name",
              "type": "string"
            },
            {
              "internalType": "string",
              "name": "message",
              "type": "string"
            }
          ],
          "internalType": "struct BuyMeACoffee.Memo[]",
          "name": "",
          "type": "tuple[]"
        }
      ],
      "stateMutability": "view",
      "type": "function"
    },
    {
      "inputs": [],
      "name": "getOriginOwner",
      "outputs": [
        {
          "internalType": "address",
          "name": "",
          "type": "address"
        }
      ],
      "stateMutability": "view",
      "type": "function"
    },
    {
      "inputs": [],
      "name": "originOwner",
      "outputs": [
        {
          "internalType": "address",
          "name": "",
          "type": "address"
        }
      ],
      "stateMutability": "view",
      "type": "function"
    },
    {
      "inputs": [
        {
          "internalType": "address",
          "name": "newOwner",
          "type": "address"
        }
      ],
      "name": "updateOwner",
      "outputs": [],
      "stateMutability": "nonpayable",
      "type": "function"
    },
    {
      "inputs": [],
      "name": "withrawTips",
      "outputs": [],
      "stateMutability": "nonpayable",
      "type": "function"
    }
  ],
  "bytecode": "0x608060405234801561001057600080fd5b5033600160006101000a81548173ffffffffffffffffffffffffffffffffffffffff021916908373ffffffffffffffffffffffffffffffffffffffff16021790555033600260006101000a81548173ffffffffffffffffffffffffffffffffffffffff021916908373ffffffffffffffffffffffffffffffffffffffff160217905550610d97806100a26000396000f3fe60806040526004361061007b5760003560e01c8063880cdc311161004e578063880cdc311461011d578063a18a186b14610146578063b387ef9214610171578063bf29eff81461019c5761007b565b80630930468f14610080578063204206e1146100ab578063282e7811146100c7578063865c5172146100f2575b600080fd5b34801561008c57600080fd5b506100956101b3565b6040516100a29190610a46565b60405180910390f35b6100c560048036038101906100c09190610807565b6101dd565b005b3480156100d357600080fd5b506100dc610365565b6040516100e99190610a46565b60405180910390f35b3480156100fe57600080fd5b5061010761038b565b6040516101149190610a7c565b60405180910390f35b34801561012957600080fd5b50610144600480360381019061013f91906107de565b61056e565b005b34801561015257600080fd5b5061015b61060c565b6040516101689190610a46565b60405180910390f35b34801561017d57600080fd5b50610186610636565b6040516101939190610a61565b60405180910390f35b3480156101a857600080fd5b506101b161065c565b005b6000600260009054906101000a900473ffffffffffffffffffffffffffffffffffffffff16905090565b60003411610220576040517f08c379a000000000000000000000000000000000000000000000000000000000815260040161021790610a9e565b60405180910390fd5b600060405180608001604052803373ffffffffffffffffffffffffffffffffffffffff16815260200142815260200184815260200183815250908060018154018082558091505060019003906000526020600020906004020160009091909190915060008201518160000160006101000a81548173ffffffffffffffffffffffffffffffffffffffff021916908373ffffffffffffffffffffffffffffffffffffffff1602179055506020820151816001015560408201518160020190805190602001906102ef9291906106be565b50606082015181600301908051906020019061030c9291906106be565b5050503373ffffffffffffffffffffffffffffffffffffffff167f9d3a1a6a7a31ef2d2a038d45b3d5fadbcac748ac4ccccac9da7c8cb6b6424fc342848460405161035993929190610abe565b60405180910390a25050565b600260009054906101000a900473ffffffffffffffffffffffffffffffffffffffff1681565b60606000805480602002602001604051908101604052809291908181526020016000905b8282101561056557838290600052602060002090600402016040518060800160405290816000820160009054906101000a900473ffffffffffffffffffffffffffffffffffffffff1673ffffffffffffffffffffffffffffffffffffffff1673ffffffffffffffffffffffffffffffffffffffff1681526020016001820154815260200160028201805461044290610c4f565b80601f016020809104026020016040519081016040528092919081815260200182805461046e90610c4f565b80156104bb5780601f10610490576101008083540402835291602001916104bb565b820191906000526020600020905b81548152906001019060200180831161049e57829003601f168201915b505050505081526020016003820180546104d490610c4f565b80601f016020809104026020016040519081016040528092919081815260200182805461050090610c4f565b801561054d5780601f106105225761010080835404028352916020019161054d565b820191906000526020600020905b81548152906001019060200180831161053057829003601f168201915b505050505081525050815260200190600101906103af565b50505050905090565b600260009054906101000a900473ffffffffffffffffffffffffffffffffffffffff1673ffffffffffffffffffffffffffffffffffffffff163373ffffffffffffffffffffffffffffffffffffffff16146105c857600080fd5b80600160006101000a81548173ffffffffffffffffffffffffffffffffffffffff021916908373ffffffffffffffffffffffffffffffffffffffff16021790555050565b6000600160009054906101000a900473ffffffffffffffffffffffffffffffffffffffff16905090565b600160009054906101000a900473ffffffffffffffffffffffffffffffffffffffff1681565b600160009054906101000a900473ffffffffffffffffffffffffffffffffffffffff1673ffffffffffffffffffffffffffffffffffffffff166108fc479081150290604051600060405180830381858888f193505050506106bc57600080fd5b565b8280546106ca90610c4f565b90600052602060002090601f0160209004810192826106ec5760008555610733565b82601f1061070557805160ff1916838001178555610733565b82800160010185558215610733579182015b82811115610732578251825591602001919060010190610717565b5b5090506107409190610744565b5090565b5b8082111561075d576000816000905550600101610745565b5090565b600061077461076f84610b28565b610b03565b90508281526020810184848401111561078c57600080fd5b610797848285610c0d565b509392505050565b6000813590506107ae81610d4a565b92915050565b600082601f8301126107c557600080fd5b81356107d5848260208601610761565b91505092915050565b6000602082840312156107f057600080fd5b60006107fe8482850161079f565b91505092915050565b6000806040838503121561081a57600080fd5b600083013567ffffffffffffffff81111561083457600080fd5b610840858286016107b4565b925050602083013567ffffffffffffffff81111561085d57600080fd5b610869858286016107b4565b9150509250929050565b600061087f83836109be565b905092915050565b61089081610bd1565b82525050565b61089f81610bbf565b82525050565b6108ae81610bbf565b82525050565b60006108bf82610b69565b6108c98185610b8c565b9350836020820285016108db85610b59565b8060005b8581101561091757848403895281516108f88582610873565b945061090383610b7f565b925060208a019950506001810190506108df565b50829750879550505050505092915050565b600061093482610b74565b61093e8185610b9d565b935061094e818560208601610c1c565b61095781610d10565b840191505092915050565b600061096d82610b74565b6109778185610bae565b9350610987818560208601610c1c565b61099081610d10565b840191505092915050565b60006109a8601e83610bae565b91506109b382610d21565b602082019050919050565b60006080830160008301516109d66000860182610896565b5060208301516109e96020860182610a28565b5060408301518482036040860152610a018282610929565b91505060608301518482036060860152610a1b8282610929565b9150508091505092915050565b610a3181610c03565b82525050565b610a4081610c03565b82525050565b6000602082019050610a5b60008301846108a5565b92915050565b6000602082019050610a766000830184610887565b92915050565b60006020820190508181036000830152610a9681846108b4565b905092915050565b60006020820190508181036000830152610ab78161099b565b9050919050565b6000606082019050610ad36000830186610a37565b8181036020830152610ae58185610962565b90508181036040830152610af98184610962565b9050949350505050565b6000610b0d610b1e565b9050610b198282610c81565b919050565b6000604051905090565b600067ffffffffffffffff821115610b4357610b42610ce1565b5b610b4c82610d10565b9050602081019050919050565b6000819050602082019050919050565b600081519050919050565b600081519050919050565b6000602082019050919050565b600082825260208201905092915050565b600082825260208201905092915050565b600082825260208201905092915050565b6000610bca82610be3565b9050919050565b6000610bdc82610be3565b9050919050565b600073ffffffffffffffffffffffffffffffffffffffff82169050919050565b6000819050919050565b82818337600083830152505050565b60005b83811015610c3a578082015181840152602081019050610c1f565b83811115610c49576000848401525b50505050565b60006002820490506001821680610c6757607f821691505b60208210811415610c7b57610c7a610cb2565b5b50919050565b610c8a82610d10565b810181811067ffffffffffffffff82111715610ca957610ca8610ce1565b5b80604052505050565b7f4e487b7100000000000000000000000000000000000000000000000000000000600052602260045260246000fd5b7f4e487b7100000000000000000000000000000000000000000000000000000000600052604160045260246000fd5b6000601f19601f8301169050919050565b7f43616e277420627579206120636f666665652077697468203020657468210000600082015250565b610d5381610bbf565b8114610d5e57600080fd5b5056fea2646970667358221220148f80af29e862a65ecf791289b640259cb0b7ddd0a734c67d44ff0778248dd564736f6c63430008040033",
  "linkReferences": {},
  "deployedLinkReferences": {}
}